{
    "contractName": "SmartPool",
    "abi": [
        {
            "inputs": [],
            "stateMutability": "nonpayable",
            "type": "constructor"
        },
        {
            "anonymous": false,
            "inputs": [
                {
                    "indexed": true,
                    "internalType": "address",
                    "name": "user",
                    "type": "address"
                },
                {
                    "indexed": true,
                    "internalType": "address",
                    "name": "referrer",
                    "type": "address"
                },
                {
                    "indexed": false,
                    "internalType": "uint256",
                    "name": "amount",
                    "type": "uint256"
                }
            ],
            "name": "RegisterUser",
            "type": "event"
        },
        {
            "anonymous": false,
            "inputs": [
                {
                    "indexed": true,
                    "internalType": "address",
                    "name": "user",
                    "type": "address"
                },
                {
                    "indexed": false,
                    "internalType": "uint256",
                    "name": "sttsAmount",
                    "type": "uint256"
                },
                {
                    "indexed": false,
                    "internalType": "uint256",
                    "name": "bnbAmount",
                    "type": "uint256"
                }
            ],
            "name": "UnfreezeUser",
            "type": "event"
        },
        {
            "anonymous": false,
            "inputs": [
                {
                    "indexed": true,
                    "internalType": "address",
                    "name": "user",
                    "type": "address"
                },
                {
                    "indexed": false,
                    "internalType": "uint256",
                    "name": "amount",
                    "type": "uint256"
                }
            ],
            "name": "UpdateUser",
            "type": "event"
        },
        {
            "anonymous": false,
            "inputs": [
                {
                    "indexed": true,
                    "internalType": "address",
                    "name": "user",
                    "type": "address"
                },
                {
                    "indexed": false,
                    "internalType": "uint256",
                    "name": "daily",
                    "type": "uint256"
                },
                {
                    "indexed": false,
                    "internalType": "uint256",
                    "name": "referrals",
                    "type": "uint256"
                }
            ],
            "name": "WithdrawInterest",
            "type": "event"
        },
        {
            "inputs": [],
            "name": "LPTOKEN",
            "outputs": [
                {
                    "internalType": "address",
                    "name": "",
                    "type": "address"
                }
            ],
            "stateMutability": "view",
            "type": "function"
        },
        {
            "inputs": [],
            "name": "MAX_PERCENT",
            "outputs": [
                {
                    "internalType": "uint256",
                    "name": "",
                    "type": "uint256"
                }
            ],
            "stateMutability": "view",
            "type": "function"
        },
        {
            "inputs": [],
            "name": "MAX_SLIPPAGE",
            "outputs": [
                {
                    "internalType": "uint256",
                    "name": "",
                    "type": "uint256"
                }
            ],
            "stateMutability": "view",
            "type": "function"
        },
        {
            "inputs": [],
            "name": "ROUTER",
            "outputs": [
                {
                    "internalType": "address",
                    "name": "",
                    "type": "address"
                }
            ],
            "stateMutability": "view",
            "type": "function"
        },
        {
            "inputs": [],
            "name": "STT",
            "outputs": [
                {
                    "internalType": "address",
                    "name": "",
                    "type": "address"
                }
            ],
            "stateMutability": "view",
            "type": "function"
        },
        {
            "inputs": [],
            "name": "STTS",
            "outputs": [
                {
                    "internalType": "address",
                    "name": "",
                    "type": "address"
                }
            ],
            "stateMutability": "view",
            "type": "function"
        },
        {
            "inputs": [
                {
                    "internalType": "address",
                    "name": "user",
                    "type": "address"
                }
            ],
            "name": "calculateInterest",
            "outputs": [
                {
                    "internalType": "uint256",
                    "name": "daily",
                    "type": "uint256"
                },
                {
                    "internalType": "uint256",
                    "name": "referral",
                    "type": "uint256"
                },
                {
                    "internalType": "uint256",
                    "name": "requestTime",
                    "type": "uint256"
                }
            ],
            "stateMutability": "view",
            "type": "function"
        },
        {
            "inputs": [
                {
                    "internalType": "address",
                    "name": "referrer",
                    "type": "address"
                },
                {
                    "internalType": "uint256",
                    "name": "amountSTTSMin",
                    "type": "uint256"
                },
                {
                    "internalType": "uint256",
                    "name": "amountBNBMin",
                    "type": "uint256"
                },
                {
                    "internalType": "uint256",
                    "name": "deadline",
                    "type": "uint256"
                }
            ],
            "name": "freeze",
            "outputs": [
                {
                    "internalType": "bool",
                    "name": "",
                    "type": "bool"
                }
            ],
            "stateMutability": "payable",
            "type": "function"
        },
        {
            "inputs": [],
            "name": "freezePrice",
            "outputs": [
                {
                    "internalType": "uint256",
                    "name": "stts",
                    "type": "uint256"
                },
                {
                    "internalType": "uint256",
                    "name": "bnb",
                    "type": "uint256"
                }
            ],
            "stateMutability": "view",
            "type": "function"
        },
        {
            "inputs": [
                {
                    "internalType": "address",
                    "name": "user",
                    "type": "address"
                },
                {
                    "internalType": "uint256",
                    "name": "percent",
                    "type": "uint256"
                }
            ],
            "name": "freezePriceInfo",
            "outputs": [
                {
                    "internalType": "uint256",
                    "name": "stts",
                    "type": "uint256"
                },
                {
                    "internalType": "uint256",
                    "name": "bnb",
                    "type": "uint256"
                },
                {
                    "internalType": "uint256",
                    "name": "minStts",
                    "type": "uint256"
                },
                {
                    "internalType": "uint256",
                    "name": "minBnb",
                    "type": "uint256"
                },
                {
                    "internalType": "uint256",
                    "name": "slippage",
                    "type": "uint256"
                }
            ],
            "stateMutability": "view",
            "type": "function"
        },
        {
            "inputs": [],
            "name": "maxStts",
            "outputs": [
                {
                    "internalType": "uint256",
                    "name": "stts",
                    "type": "uint256"
                }
            ],
            "stateMutability": "view",
            "type": "function"
        },
        {
            "inputs": [],
            "name": "owner",
            "outputs": [
                {
                    "internalType": "address",
                    "name": "",
                    "type": "address"
                }
            ],
            "stateMutability": "view",
            "type": "function"
        },
        {
            "inputs": [
                {
                    "internalType": "uint256",
                    "name": "_percent",
                    "type": "uint256"
                }
            ],
            "name": "setPercentAndApprove",
            "outputs": [],
            "stateMutability": "nonpayable",
            "type": "function"
        },
        {
            "inputs": [
                {
                    "internalType": "uint256",
                    "name": "amountSTTSMin",
                    "type": "uint256"
                },
                {
                    "internalType": "uint256",
                    "name": "amountBNBMin",
                    "type": "uint256"
                },
                {
                    "internalType": "uint256",
                    "name": "deadline",
                    "type": "uint256"
                }
            ],
            "name": "unfreeze",
            "outputs": [
                {
                    "internalType": "bool",
                    "name": "",
                    "type": "bool"
                }
            ],
            "stateMutability": "nonpayable",
            "type": "function"
        },
        {
            "inputs": [
                {
                    "internalType": "uint256",
                    "name": "amountSTTSMin",
                    "type": "uint256"
                },
                {
                    "internalType": "uint256",
                    "name": "amountBNBMin",
                    "type": "uint256"
                },
                {
                    "internalType": "uint256",
                    "name": "deadline",
                    "type": "uint256"
                }
            ],
            "name": "updateFreeze",
            "outputs": [
                {
                    "internalType": "bool",
                    "name": "",
                    "type": "bool"
                }
            ],
            "stateMutability": "payable",
            "type": "function"
        },
        {
            "inputs": [
                {
                    "internalType": "address",
                    "name": "user",
                    "type": "address"
                }
            ],
            "name": "updatePrice",
            "outputs": [
                {
                    "internalType": "uint256",
                    "name": "stts",
                    "type": "uint256"
                },
                {
                    "internalType": "uint256",
                    "name": "bnb",
                    "type": "uint256"
                }
            ],
            "stateMutability": "view",
            "type": "function"
        },
        {
            "inputs": [
                {
                    "internalType": "address",
                    "name": "_user",
                    "type": "address"
                }
            ],
            "name": "userCompletedLevel",
            "outputs": [
                {
                    "internalType": "uint8",
                    "name": "level",
                    "type": "uint8"
                }
            ],
            "stateMutability": "view",
            "type": "function"
        },
        {
            "inputs": [
                {
                    "internalType": "address",
                    "name": "user",
                    "type": "address"
                }
            ],
            "name": "userDepositNumber",
            "outputs": [
                {
                    "internalType": "uint256",
                    "name": "",
                    "type": "uint256"
                }
            ],
            "stateMutability": "view",
            "type": "function"
        },
        {
            "inputs": [
                {
                    "internalType": "address",
                    "name": "user",
                    "type": "address"
                }
            ],
            "name": "userDepositTime",
            "outputs": [
                {
                    "internalType": "uint256[]",
                    "name": "",
                    "type": "uint256[]"
                }
            ],
            "stateMutability": "view",
            "type": "function"
        },
        {
            "inputs": [
                {
                    "internalType": "address",
                    "name": "user",
                    "type": "address"
                },
                {
                    "internalType": "uint256",
                    "name": "index",
                    "type": "uint256"
                }
            ],
            "name": "userDepositTimer",
            "outputs": [
                {
                    "internalType": "uint256",
                    "name": "",
                    "type": "uint256"
                }
            ],
            "stateMutability": "view",
            "type": "function"
        },
        {
            "inputs": [
                {
                    "internalType": "address",
                    "name": "user",
                    "type": "address"
                }
            ],
            "name": "userExpireTime",
            "outputs": [
                {
                    "internalType": "uint256",
                    "name": "",
                    "type": "uint256"
                }
            ],
            "stateMutability": "view",
            "type": "function"
        },
        {
            "inputs": [
                {
                    "internalType": "address",
                    "name": "user",
                    "type": "address"
                }
            ],
            "name": "userExpired",
            "outputs": [
                {
                    "internalType": "bool",
                    "name": "",
                    "type": "bool"
                }
            ],
            "stateMutability": "view",
            "type": "function"
        },
        {
            "inputs": [],
            "name": "userID",
            "outputs": [
                {
                    "internalType": "uint256",
                    "name": "",
                    "type": "uint256"
                }
            ],
            "stateMutability": "view",
            "type": "function"
        },
        {
            "inputs": [
                {
                    "internalType": "address",
                    "name": "user",
                    "type": "address"
                }
            ],
            "name": "userReferralList",
            "outputs": [
                {
                    "internalType": "uint32[15]",
                    "name": "",
                    "type": "uint32[15]"
                }
            ],
            "stateMutability": "view",
            "type": "function"
        },
        {
            "inputs": [
                {
                    "internalType": "address",
                    "name": "user",
                    "type": "address"
                }
            ],
            "name": "userReferrals",
            "outputs": [
                {
                    "internalType": "address[3]",
                    "name": "",
                    "type": "address[3]"
                }
            ],
            "stateMutability": "view",
            "type": "function"
        },
        {
            "inputs": [
                {
                    "internalType": "address",
                    "name": "",
                    "type": "address"
                }
            ],
            "name": "users",
            "outputs": [
                {
                    "internalType": "uint256",
                    "name": "id",
                    "type": "uint256"
                },
                {
                    "internalType": "uint256",
                    "name": "totalStts",
                    "type": "uint256"
                },
                {
                    "internalType": "uint256",
                    "name": "liquidity",
                    "type": "uint256"
                },
                {
                    "internalType": "uint256",
                    "name": "refAmounts",
                    "type": "uint256"
                },
                {
                    "internalType": "uint256",
                    "name": "refID",
                    "type": "uint256"
                },
                {
                    "internalType": "uint256",
                    "name": "latestWithdraw",
                    "type": "uint256"
                }
            ],
            "stateMutability": "view",
            "type": "function"
        },
        {
            "inputs": [],
            "name": "withdrawInterest",
            "outputs": [
                {
                    "internalType": "bool",
                    "name": "",
                    "type": "bool"
                }
            ],
            "stateMutability": "nonpayable",
            "type": "function"
        },
        {
            "stateMutability": "payable",
            "type": "receive"
        }
    ],
    "bytecode": "612710600390815560326004556005805460ff19168217905560256006556329b9270060079081556108ac6008556101606040526080918252600960a0819052601b60c052605160e05260f3610100526102d96101205261088b610140526200006a929091620002b8565b50604080516060810182526404cccccf2081526403333334ad6020820152640199999a5691810191909152620000a590600a90600362000355565b506001600b55348015620000b857600080fd5b50600280546001600160a01b03199081167375bea6460fff60ff789f88f7fe005295b8901455179091556001805490911673d99d1c33f9fc3444f8101754abc46c52416550d11790556200010b620001a1565b600080546001600160a01b0319166001600160a01b0392909216919091179055620001376032620001a5565b600b54600c600062000148620001a1565b6001600160a01b031681526020810191909152604001600020556200016c620001a1565b600b546000908152600d6020526040902080546001600160a01b0319166001600160a01b0392909216919091179055620004c3565b3390565b6000546001600160a01b0316620001bb620001a1565b6001600160a01b031614620001ed5760405162461bcd60e51b8152600401620001e49062000440565b60405180910390fd5b60405163095ea7b360e01b815273bfd0ac6cd15712e0a697bda40897cdc54b06d7ef9063095ea7b3906200023e9073d99d1c33f9fc3444f8101754abc46c52416550d1906000199060040162000427565b602060405180830381600087803b1580156200025957600080fd5b505af11580156200026e573d6000803e3d6000fd5b505050506040513d601f19601f82011682018060405250810190620002949190620003fe565b620002b35760405162461bcd60e51b8152600401620001e49062000482565b600455565b600183019183908215620003435791602002820160005b838211156200031157835183826101000a81548161ffff021916908361ffff1602179055509260200192600201602081600101049283019260010302620002cf565b8015620003415782816101000a81549061ffff021916905560020160208160010104928301926001030262000311565b505b5062000351929150620003e7565b5090565b600183019183908215620003435791602002820160005b83821115620003b457835183826101000a81548164ffffffffff021916908364ffffffffff16021790555092602001926005016020816004010492830192600103026200036c565b8015620003415782816101000a81549064ffffffffff0219169055600501602081600401049283019260010302620003b4565b5b80821115620003515760008155600101620003e8565b60006020828403121562000410578081fd5b8151801515811462000420578182fd5b9392505050565b6001600160a01b03929092168252602082015260400190565b60208082526022908201527f4572726f723a3a536d617274506f6f6c2c204f6e6c792066726f6d206f776e65604082015261722160f01b606082015260800190565b60208082526021908201527f4572726f723a3a536d617274506f6f6c2c20417070726f7665206661696c65646040820152602160f81b606082015260800190565b612dde80620004d36000396000f3fe60806040526004361061019f5760003560e01c806396e85ced116100ec578063e11932cf1161008a578063ec1182c211610064578063ec1182c2146104b2578063edadd3b4146104c7578063f7b4b0e6146104f4578063f975951814610509576101a6565b8063e11932cf1461044e578063e302418a1461047d578063ea68d36114610492576101a6565b8063b55555f7116100c6578063b55555f7146103d7578063bc11f13e146103ec578063cf27e06f1461040c578063d962801414610439576101a6565b806396e85ced14610357578063a87430ba14610385578063a9eeff8e146103b7576101a6565b806332fe7b261161015957806365f787c61161013357806365f787c6146102e05780636b277e37146103025780636c9c59441461032f5780638da5cb5b14610342576101a6565b806332fe7b26146102785780633544b7471461029a5780633dbd5a30146102af576101a6565b806263750c146101ab578063101835ee146101d65780631036bbe2146101f6578063219a9c0b1461021857806321a1e8791461023857806327801c1c1461024b576101a6565b366101a657005b600080fd5b3480156101b757600080fd5b506101c061051e565b6040516101cd9190612620565b60405180910390f35b3480156101e257600080fd5b506101c06101f1366004612368565b6106d3565b34801561020257600080fd5b5061020b610710565b6040516101cd9190612a8e565b34801561022457600080fd5b5061020b610233366004612368565b610716565b6101c0610246366004612456565b610734565b34801561025757600080fd5b5061026b610266366004612368565b6108e6565b6040516101cd9190612b06565b34801561028457600080fd5b5061028d6109c9565b6040516101cd91906124e7565b3480156102a657600080fd5b5061028d6109e1565b3480156102bb57600080fd5b506102cf6102ca366004612382565b6109f9565b6040516101cd959493929190612abb565b3480156102ec57600080fd5b506103006102fb366004612403565b610a85565b005b34801561030e57600080fd5b5061032261031d366004612368565b610b81565b6040516101cd9190612573565b6101c061033d3660046123ab565b610be5565b34801561034e57600080fd5b5061028d610f26565b34801561036357600080fd5b50610377610372366004612368565b610f35565b6040516101cd929190612a97565b34801561039157600080fd5b506103a56103a0366004612368565b610fed565b6040516101cd96959493929190612ade565b3480156103c357600080fd5b5061020b6103d2366004612368565b611022565b3480156103e357600080fd5b5061028d6110b0565b3480156103f857600080fd5b5061020b610407366004612382565b6110c8565b34801561041857600080fd5b5061042c610427366004612368565b611119565b6040516101cd91906125ad565b34801561044557600080fd5b5061028d611187565b34801561045a57600080fd5b5061046e610469366004612368565b61119f565b6040516101cd93929190612aa5565b34801561048957600080fd5b5061020b61125f565b34801561049e57600080fd5b506101c06104ad366004612456565b611265565b3480156104be57600080fd5b50610377611586565b3480156104d357600080fd5b506104e76104e2366004612368565b611618565b6040516101cd91906125f1565b34801561050057600080fd5b5061020b611699565b34801561051557600080fd5b5061020b611770565b60008060008061052f610469611776565b60025492955090935091506001600160a01b03166396e99b2e610550611776565b61055a868661177a565b6040518363ffffffff1660e01b815260040161057792919061251f565b602060405180830381600087803b15801561059157600080fd5b505af11580156105a5573d6000803e3d6000fd5b505050506040513d601f19601f820116820180604052508101906105c991906123e3565b6105ee5760405162461bcd60e51b81526004016105e5906126a2565b60405180910390fd5b61062182600c60006105fe611776565b6001600160a01b0316815260208101919091526040016000206003015490611786565b600c600061062d611776565b6001600160a01b03166001600160a01b031681526020019081526020016000206003018190555080600c6000610661611776565b6001600160a01b031681526020810191909152604001600020600b0155610686611776565b6001600160a01b03167f311c0edd26c5d78e8109d3d9731d5916b3cc0114c05d5d2cef337e67c2305ced84846040516106c0929190612a97565b60405180910390a2600193505050505b90565b6001600160a01b0381166000908152600c60205260408120600501541561070757426106fe83611022565b1115905061070b565b5060015b919050565b60035481565b6001600160a01b03166000908152600c602052604090206005015490565b600081428110156107575760405162461bcd60e51b81526004016105e59061266d565b6000600c6000610765611776565b6001600160a01b031681526020810191909152604001600020541161079c5760405162461bcd60e51b81526004016105e5906127b0565b6000806107a7611586565b90925090508173bfd0ac6cd15712e0a697bda40897cdc54b06d7ef6370a082316107cf611776565b6040518263ffffffff1660e01b81526004016107eb91906124e7565b60206040518083038186803b15801561080357600080fd5b505afa158015610817573d6000803e3d6000fd5b505050506040513d601f19601f8201168201806040525081019061083b919061241b565b10156108595760405162461bcd60e51b81526004016105e590612a4c565b803410156108795760405162461bcd60e51b81526004016105e59061262b565b61088582888888611792565b610891600b5483611a41565b610899611776565b6001600160a01b03167f0a069cb19d168bc7a049b956ce2d15e1fa917e5024d1584c4a7d683d9774b609836040516108d19190612a8e565b60405180910390a25060019695505050505050565b6000805b60078160ff1610156109c35760098160ff166007811061091a57634e487b7160e01b600052603260045260246000fd5b601091828204019190066002029054906101000a900461ffff1661ffff16600c6000856001600160a01b03166001600160a01b031681526020019081526020016000206009018260ff16600f811061098257634e487b7160e01b600052603260045260246000fd5b600891828204019190066004029054906101000a900463ffffffff1663ffffffff1610156109b157905061070b565b806109bb81612d48565b9150506108ea565b50919050565b73d99d1c33f9fc3444f8101754abc46c52416550d181565b733403db5edd2541aaa3793de4c0ffb31463a3d1cf81565b6000808080806001600160a01b038716610a1a57610a15611586565b610a23565b610a2387610f35565b909550935085610a3557600454610a37565b855b600354909150610a5b90610a55610a4e8285611786565b8890611b71565b90611b7d565b600354909350610a7990610a55610a728285611786565b8790611b71565b91509295509295909350565b6000546001600160a01b0316610a99611776565b6001600160a01b031614610abf5760405162461bcd60e51b81526004016105e59061287a565b60405163095ea7b360e01b815273bfd0ac6cd15712e0a697bda40897cdc54b06d7ef9063095ea7b390610b0e9073d99d1c33f9fc3444f8101754abc46c52416550d1906000199060040161251f565b602060405180830381600087803b158015610b2857600080fd5b505af1158015610b3c573d6000803e3d6000fd5b505050506040513d601f19601f82011682018060405250810190610b6091906123e3565b610b7c5760405162461bcd60e51b81526004016105e5906129d4565b600455565b610b89612314565b6001600160a01b0382166000908152600c60205260409081902081516060810190925260060160038282826020028201915b81546001600160a01b03168152600190910190602001808311610bbb575b50505050509050919050565b60008142811015610c085760405162461bcd60e51b81526004016105e59061266d565b600c6000610c14611776565b6001600160a01b0316815260208101919091526040016000205415610c4b5760405162461bcd60e51b81526004016105e590612a15565b600080610c56611586565b90925090508173bfd0ac6cd15712e0a697bda40897cdc54b06d7ef6370a08231610c7e611776565b6040518263ffffffff1660e01b8152600401610c9a91906124e7565b60206040518083038186803b158015610cb257600080fd5b505afa158015610cc6573d6000803e3d6000fd5b505050506040513d601f19601f82011682018060405250810190610cea919061241b565b1015610d085760405162461bcd60e51b81526004016105e590612a4c565b80341015610d285760405162461bcd60e51b81526004016105e59061262b565b6001600160a01b0388166000908152600c602052604081205415610d6557506001600160a01b0388166000908152600c6020526040902054610d9a565b6001600160a01b038916610d8257610d7b611b89565b9050610d9a565b60405162461bcd60e51b81526004016105e590612906565b600081118015610dac5750600b548111155b610dc85760405162461bcd60e51b81526004016105e5906127f1565b6005546000828152600d602090815260408220546001600160a01b0316909152600c905260ff16600310610e38576000818152600d6020526040812054600c9190610e1b906001600160a01b0316611c30565b6001600160a01b0316815260208101919091526040016000205490505b600b54610e4690600161177a565b600b819055600c6000610e57611776565b6001600160a01b03166001600160a01b031681526020019081526020016000206000018190555080600c6000610e8b611776565b6001600160a01b03168152602081019190915260400160002060040155610eb0611776565b600b546000908152600d6020526040902080546001600160a01b0319166001600160a01b0392909216919091179055610ee7611776565b6000828152600d60209081526040808320546001600160a01b03168352600c9091528120634e487b7160e01b8252603260045260060190600390602490fd5b6000546001600160a01b031681565b6001600160a01b0381166000908152600c60205260408120600101548190610f6590610f5f611699565b90611786565b6002546040516335d743a360e11b81529193506001600160a01b031690636bae874690610f96908590600401612a8e565b60206040518083038186803b158015610fae57600080fd5b505afa158015610fc2573d6000803e3d6000fd5b505050506040513d601f19601f82011682018060405250810190610fe6919061241b565b9050915091565b600c60205260009081526040902080546001820154600283015460038401546004850154600b90950154939492939192909186565b6001600160a01b0381166000908152600c6020526040812060050154819061104b906001611786565b6008546001600160a01b0385166000908152600c6020526040902060050180549293506110a9928490811061109057634e487b7160e01b600052603260045260246000fd5b906000526020600020015461177a90919063ffffffff16565b9392505050565b73bfd0ac6cd15712e0a697bda40897cdc54b06d7ef81565b6001600160a01b0382166000908152600c6020526040812060050180546110a99142918590811061110957634e487b7160e01b600052603260045260246000fd5b9060005260206000200154612028565b6001600160a01b0381166000908152600c6020908152604091829020600501805483518184028101840190945280845260609392830182828015610bd957602002820191906000526020600020905b8154815260200190600101908083116111685750505050509050919050565b7375bea6460fff60ff789f88f7fe005295b890145581565b6001600160a01b0381166000908152600c6020526040812054819081906111d85760405162461bcd60e51b81526004016105e5906127b0565b506001600160a01b0383166000908152600c602052604090206002015442906112135760405162461bcd60e51b81526004016105e5906128bc565b6001600160a01b0384166000908152600c602052604090206003810154600b90910154909250819061124690603c61177a565b11611258576112558482612039565b92505b9193909250565b600b5481565b600081428110156112885760405162461bcd60e51b81526004016105e59061266d565b6112936101f1611776565b6112af5760405162461bcd60e51b81526004016105e59061294b565b6000600c60006112bd611776565b6001600160a01b03166001600160a01b0316815260200190815260200160002060020154116112fe5760405162461bcd60e51b81526004016105e590612725565b733403db5edd2541aaa3793de4c0ffb31463a3d1cf63095ea7b373d99d1c33f9fc3444f8101754abc46c52416550d1600c6000611339611776565b6001600160a01b03166001600160a01b03168152602001908152602001600020600201546040518363ffffffff1660e01b815260040161137a92919061251f565b602060405180830381600087803b15801561139457600080fd5b505af11580156113a8573d6000803e3d6000fd5b505050506040513d601f19601f820116820180604052508101906113cc91906123e3565b6113e85760405162461bcd60e51b81526004016105e5906129d4565b6000600c60006113f6611776565b6001600160a01b03166001600160a01b03168152602001908152602001600020600201819055506000600c600061142b611776565b6001600160a01b0390811682526020820192909252604001600090812060019081019390935591548291166302751cec73bfd0ac6cd15712e0a697bda40897cdc54b06d7ef600c8461147b611776565b6001600160a01b03166001600160a01b03168152602001908152602001600020600201548a8a6114a9611776565b8b6040518763ffffffff1660e01b81526004016114cb96959493929190612538565b6040805180830381600087803b1580156114e457600080fd5b505af11580156114f8573d6000803e3d6000fd5b505050506040513d601f19601f8201168201806040525081019061151c9190612433565b9150915061152861051e565b6115445760405162461bcd60e51b81526004016105e59061276e565b61154c611776565b6001600160a01b03167f9026a20f43ae5bb308dd284e852a96201724a016948530d5790845221f7d7a2783836040516108d1929190612a97565b600080611591611699565b6002546040516335d743a360e11b81529193506001600160a01b031690636bae8746906115c2908590600401612a8e565b60206040518083038186803b1580156115da57600080fd5b505afa1580156115ee573d6000803e3d6000fd5b505050506040513d601f19601f82011682018060405250810190611612919061241b565b90509091565b611620612332565b6001600160a01b0382166000908152600c602052604080822081516101e081019283905292600990910191600f918390855b82829054906101000a900463ffffffff1663ffffffff1681526020019060040190602082600301049283019260010382029150808411611652575094979650505050505050565b600080600260009054906101000a90046001600160a01b03166001600160a01b031663faa40a776040518163ffffffff1660e01b815260040160206040518083038186803b1580156116ea57600080fd5b505afa1580156116fe573d6000803e3d6000fd5b505050506040513d601f19601f82011682018060405250810190611722919061241b565b90505b801561176c576117408161173a816002612bac565b9061218c565b61175a57600754611752908290611b71565b9150506106d0565b8061176481612cf4565b915050611725565b5090565b60045481565b3390565b60006110a98284612b3a565b60006110a98284612cba565b73bfd0ac6cd15712e0a697bda40897cdc54b06d7ef6323b872dd6117b4611776565b30876040518463ffffffff1660e01b81526004016117d4939291906124fb565b602060405180830381600087803b1580156117ee57600080fd5b505af1158015611802573d6000803e3d6000fd5b505050506040513d601f19601f8201168201806040525081019061182691906123e3565b6118425760405162461bcd60e51b81526004016105e590612839565b60015460405163f305d71960e01b815260009182916001600160a01b039091169063f305d7199034906118979073bfd0ac6cd15712e0a697bda40897cdc54b06d7ef908b908b908b9030908c90600401612538565b6060604051808303818588803b1580156118b057600080fd5b505af11580156118c4573d6000803e3d6000fd5b50505050506040513d601f19601f820116820180604052508101906118e99190612481565b92509250506000811161190e5760405162461bcd60e51b81526004016105e5906126e4565b61194181600c600061191e611776565b6001600160a01b031681526020810191909152604001600020600201549061177a565b600c600061194d611776565b6001600160a01b03166001600160a01b03168152602001908152602001600020600201819055506119a786600c6000611984611776565b6001600160a01b031681526020810191909152604001600020600101549061177a565b600c60006119b3611776565b6001600160a01b03166001600160a01b0316815260200190815260200160002060010181905550600c60006119e6611776565b6001600160a01b03168152602080820192909252604001600090812060050180546001810182559082529190204291015534821015611a3957611a39611a2a611776565b611a348434612cba565b612198565b505050505050565b60005b600f811015611b6c576000838152600d60208181526040808420546001600160a01b039081168552600c8352818520600401548086529390925290922054909116611a8e816106d3565b158015611ab657506001600160a01b0381166000908152600c60205260409020600101548411155b15611b4b57611b2e600a60028510611acf576002611ad1565b845b60038110611aef57634e487b7160e01b600052603260045260246000fd5b6006808204909201546001600160a01b0385166000908152600c60205260409020600301549264ffffffffff600591909306026101000a90041661177a565b6001600160a01b0382166000908152600c60205260409020600301555b81611b57575050611b6c565b50925080611b6481612d2d565b915050611a44565b505050565b60006110a98284612c9b565b60006110a98284612b52565b6000805b60038160ff16101561176c57600b54600090611baa906002611b7d565b90505b611bce6064611bc86002600b54611b7d90919063ffffffff16565b9061177a565b811015611c1d576000818152600d602090815260408220546001600160a01b0316909152600c9052600360ff83161415611c0b5791506106d09050565b80611c1581612d2d565b915050611bad565b5080611c2881612d48565b915050611b8d565b6005546001600160a01b0382166000908152600c6020529060ff1660031015611c5a57508061070b565b6000611c65836108e6565b9050600060ff821615611fec57600080611c7e84612225565b9150915060008261ffff1667ffffffffffffffff811115611caf57634e487b7160e01b600052604160045260246000fd5b604051908082528060200260200182016040528015611cd8578160200160208202803683370190505b506001600160a01b038881166000908152600c6020526040812060060154835193945090911691839190611d1c57634e487b7160e01b600052603260045260246000fd5b6001600160a01b039283166020918202929092018101919091528882166000908152600c9091526040902060070154825191169082906001908110611d7157634e487b7160e01b600052603260045260246000fd5b6001600160a01b039283166020918202929092018101919091528882166000908152600c9091526040902060080154825191169082906002908110611dc657634e487b7160e01b600052603260045260246000fd5b60200260200101906001600160a01b031690816001600160a01b03168152505060005b8261ffff168161ffff161015611f0c5760005b60038160ff161015611ef957600c6000848461ffff1681518110611e3057634e487b7160e01b600052603260045260246000fd5b60200260200101516001600160a01b03166001600160a01b031681526020019081526020016000206006018160ff1660038110611e7d57634e487b7160e01b600052603260045260246000fd5b01546001600160a01b03168360ff8316611e98856001612b14565b611ea3906003612c7a565b611ead9190612b14565b61ffff1681518110611ecf57634e487b7160e01b600052603260045260246000fd5b6001600160a01b039092166020928302919091019091015280611ef181612d48565b915050611dfc565b5080611f0481612d0b565b915050611de9565b5060005b60038160ff161015611fe757825b8461ffff168161ffff161015611fc0578160ff16600c6000858461ffff1681518110611f5a57634e487b7160e01b600052603260045260246000fd5b6020908102919091018101516001600160a01b03168252015260031415611fae57828161ffff1681518110611f9f57634e487b7160e01b600052603260045260246000fd5b60200260200101519550611fc0565b80611fb881612d0b565b915050611f1e565b506001600160a01b03851615611fd557611fe7565b80611fdf81612d48565b915050611f10565b505050505b6001600160a01b0381166110a957600d6000612006611b89565b81526020810191909152604001600020546001600160a01b0316949350505050565b60006110a9603c610a558585611786565b6000805b6001600160a01b0384166000908152600c602052604090206005015461ffff82161015612185576001600160a01b0384166000908152600c60205260408120600501805461ffff84169081106120a357634e487b7160e01b600052603260045260246000fd5b9060005260206000200154905060006120c76008548361177a90919063ffffffff16565b6001600160a01b0387166000908152600c60205260409020600b01549091508181101561216f57808311156120f95750815b6000806121068886612028565b905060065481111561211757506006545b61212285603c61177a565b83111561214c5761214960056121388588612028565b612143906002612bac565b90611b71565b91505b61216a61216383610f5f6005612143866002612bac565b889061177a565b965050505b505050808061217d90612d0b565b91505061203d565b5092915050565b60006110a98284612d68565b604080516000808252602082019092526001600160a01b0384169083906040516121c291906124ae565b60006040518083038185875af1925050503d80600081146121ff576040519150601f19603f3d011682016040523d82523d6000602084013e612204565b606091505b5050905080611b6c5760405162461bcd60e51b81526004016105e590612991565b6000808260ff1660011415612240575060039050600061230f565b60005b8360ff168160ff16101561230d5760ff8116156122b0576009612267600183612cd1565b60ff166007811061228857634e487b7160e01b600052603260045260246000fd5b601091828204019190066002029054906101000a900461ffff16826122ad9190612b14565b91505b60098160ff16600781106122d457634e487b7160e01b600052603260045260246000fd5b601091828204019190066002029054906101000a900461ffff16836122f99190612b14565b92508061230581612d48565b915050612243565b505b915091565b60405180606001604052806003906020820280368337509192915050565b604051806101e00160405280600f906020820280368337509192915050565b80356001600160a01b038116811461070b57600080fd5b600060208284031215612379578081fd5b6110a982612351565b60008060408385031215612394578081fd5b61239d83612351565b946020939093013593505050565b600080600080608085870312156123c0578182fd5b6123c985612351565b966020860135965060408601359560600135945092505050565b6000602082840312156123f4578081fd5b815180151581146110a9578182fd5b600060208284031215612414578081fd5b5035919050565b60006020828403121561242c578081fd5b5051919050565b60008060408385031215612445578182fd5b505080516020909101519092909150565b60008060006060848603121561246a578283fd5b505081359360208301359350604090920135919050565b600080600060608486031215612495578283fd5b8351925060208401519150604084015190509250925092565b60008251815b818110156124ce57602081860181015185830152016124b4565b818111156124dc5782828501525b509190910192915050565b6001600160a01b0391909116815260200190565b6001600160a01b039384168152919092166020820152604081019190915260600190565b6001600160a01b03929092168252602082015260400190565b6001600160a01b039687168152602081019590955260408501939093526060840191909152909216608082015260a081019190915260c00190565b60608101818360005b60038110156125a45781516001600160a01b031683526020928301929091019060010161257c565b50505092915050565b6020808252825182820181905260009190848201906040850190845b818110156125e5578351835292840192918401916001016125c9565b50909695505050505050565b6101e08101818360005b600f8110156125a457815163ffffffff168352602092830192909101906001016125fb565b901515815260200190565b60208082526022908201527f4572726f723a3a536d617274506f6f6c2c20496e636f72726563742076616c75604082015261652160f01b606082015260800190565b6020808252818101527f4572726f723a3a536d617274506f6f6c2c205377617020457861706972656421604082015260600190565b60208082526022908201527f4572726f723a3a536d617274506f6f6c2c20535454204d696e65206661696c65604082015261642160f01b606082015260800190565b60208082526021908201527f4572726f723a3a536d617274506f6f6c2c204465706f736974206661696c65646040820152602160f81b606082015260800190565b60208082526029908201527f4572726f723a3a536d617274506f6f6c2c205573657220646f73656e7420686160408201526876652076616c75652160b81b606082015260800190565b60208082526022908201527f4572726f723a3a536d617274506f6f6c2c205769746864726177206661696c65604082015261642160f01b606082015260800190565b60208082526021908201527f4572726f723a3a536d617274506f6f6c2c2055736572206e6f742065786973746040820152602160f81b606082015260800190565b60208082526028908201527f4572726f723a3a536d617274506f6f6c2c20496e636f72726563742072656665604082015267727265722069642160c01b606082015260800190565b60208082526021908201527f4572726f723a3a536d617274506f6f6c2c205472616e73666572206661696c656040820152601960fa1b606082015260800190565b60208082526022908201527f4572726f723a3a536d617274506f6f6c2c204f6e6c792066726f6d206f776e65604082015261722160f01b606082015260800190565b6020808252602a908201527f4572726f723a3a536d617274506f6f6c2c205573657220646f73656e277420686040820152696176652076616c75652160b01b606082015260800190565b60208082526025908201527f4572726f723a3a536d617274506f6f6c2c205265666572726572206e6f7420666040820152646f756e642160d81b606082015260800190565b60208082526026908201527f4572726f723a3a536d617274506f6f6c2c2055736572206973206e6f7420657860408201526570697265642160d01b606082015260800190565b60208082526023908201527f5472616e7366657248656c7065723a204554485f5452414e534645525f46414960408201526213115160ea1b606082015260800190565b60208082526021908201527f4572726f723a3a536d617274506f6f6c2c20417070726f7665206661696c65646040820152602160f81b606082015260800190565b6020808252601d908201527f4572726f723a3a536d617274506f6f6c2c205573657220657869737421000000604082015260600190565b60208082526022908201527f4572726f723a3a536d617274506f6f6c2c204e6f7420656e6f75676820535454604082015261532160f01b606082015260800190565b90815260200190565b918252602082015260400190565b9283526020830191909152604082015260600190565b948552602085019390935260408401919091526060830152608082015260a00190565b958652602086019490945260408501929092526060840152608083015260a082015260c00190565b60ff91909116815260200190565b600061ffff808316818516808303821115612b3157612b31612d7c565b01949350505050565b60008219821115612b4d57612b4d612d7c565b500190565b600082612b6157612b61612d92565b500490565b80825b6001808611612b785750612ba3565b818704821115612b8a57612b8a612d7c565b80861615612b9757918102915b9490941c938002612b69565b94509492505050565b60006110a96000198484600082612bc5575060016110a9565b81612bd2575060006110a9565b8160018114612be85760028114612bf257612c1f565b60019150506110a9565b60ff841115612c0357612c03612d7c565b6001841b915084821115612c1957612c19612d7c565b506110a9565b5060208310610133831016604e8410600b8410161715612c52575081810a83811115612c4d57612c4d612d7c565b6110a9565b612c5f8484846001612b66565b808604821115612c7157612c71612d7c565b02949350505050565b600061ffff80831681851681830481118215151615612c7157612c71612d7c565b6000816000190483118215151615612cb557612cb5612d7c565b500290565b600082821015612ccc57612ccc612d7c565b500390565b600060ff821660ff841680821015612ceb57612ceb612d7c565b90039392505050565b600081612d0357612d03612d7c565b506000190190565b600061ffff80831681811415612d2357612d23612d7c565b6001019392505050565b6000600019821415612d4157612d41612d7c565b5060010190565b600060ff821660ff811415612d5f57612d5f612d7c565b60010192915050565b600082612d7757612d77612d92565b500690565b634e487b7160e01b600052601160045260246000fd5b634e487b7160e01b600052601260045260246000fdfea2646970667358221220bc64307b88f2fcacab09a2d826b53e0f5a6c8a028c1b52a58fc2386726fc9c1f64736f6c63430008000033",
    "sourcePath": "/Users/B3HR4D/Coding/Github/typescript-solidity/contracts/Pool/SmartPool.sol",
    "compiler": {
        "name": "solc",
        "version": "0.8.0+commit.c7dfd78e"
    },
    "functionHashes": {
        "LPTOKEN()": "3544b747",
        "MAX_PERCENT()": "1036bbe2",
        "MAX_SLIPPAGE()": "f9759518",
        "ROUTER()": "32fe7b26",
        "STT()": "d9628014",
        "STTS()": "b55555f7",
        "calculateInterest(address)": "e11932cf",
        "freeze(address,uint256,uint256,uint256)": "6c9c5944",
        "freezePrice()": "ec1182c2",
        "freezePriceInfo(address,uint256)": "3dbd5a30",
        "maxStts()": "f7b4b0e6",
        "owner()": "8da5cb5b",
        "setPercentAndApprove(uint256)": "65f787c6",
        "unfreeze(uint256,uint256,uint256)": "ea68d361",
        "updateFreeze(uint256,uint256,uint256)": "21a1e879",
        "updatePrice(address)": "96e85ced",
        "userCompletedLevel(address)": "27801c1c",
        "userDepositNumber(address)": "219a9c0b",
        "userDepositTime(address)": "cf27e06f",
        "userDepositTimer(address,uint256)": "bc11f13e",
        "userExpireTime(address)": "a9eeff8e",
        "userExpired(address)": "101835ee",
        "userID()": "e302418a",
        "userReferralList(address)": "edadd3b4",
        "userReferrals(address)": "6b277e37",
        "users(address)": "a87430ba",
        "withdrawInterest()": "0063750c"
    },
    "gasEstimates": {
        "creation": {
            "codeDepositCost": "2348400",
            "executionCost": "infinite",
            "totalCost": "infinite"
        },
        "external": {
            "LPTOKEN()": "320",
            "MAX_PERCENT()": "1096",
            "MAX_SLIPPAGE()": "1138",
            "ROUTER()": "298",
            "STT()": "363",
            "STTS()": "297",
            "calculateInterest(address)": "infinite",
            "freeze(address,uint256,uint256,uint256)": "infinite",
            "freezePrice()": "infinite",
            "freezePriceInfo(address,uint256)": "infinite",
            "maxStts()": "infinite",
            "owner()": "1181",
            "setPercentAndApprove(uint256)": "infinite",
            "unfreeze(uint256,uint256,uint256)": "infinite",
            "updateFreeze(uint256,uint256,uint256)": "infinite",
            "updatePrice(address)": "infinite",
            "userCompletedLevel(address)": "infinite",
            "userDepositNumber(address)": "1366",
            "userDepositTime(address)": "infinite",
            "userDepositTimer(address,uint256)": "infinite",
            "userExpireTime(address)": "infinite",
            "userExpired(address)": "infinite",
            "userID()": "1095",
            "userReferralList(address)": "infinite",
            "userReferrals(address)": "infinite",
            "users(address)": "5503",
            "withdrawInterest()": "infinite"
        },
        "internal": {
            "addLiquidity(uint256,uint256,uint256,uint256)": "infinite",
            "calculateDaily(address,uint256)": "infinite",
            "daysBetween(uint256,uint256)": "infinite",
            "findMostFreeReferrals(address)": "infinite",
            "findRandomMostFreeReferrer()": "infinite",
            "payReferrer(uint256,uint256)": "infinite",
            "totalMembers(uint8)": "infinite"
        }
    }
}